:020000040800F2
:1000000000280020C90E0008590E00085F0E0008E5
:10001000650E00086B0E0008710E0008000000005D
:10002000000000000000000000000000770E000843
:10003000830E0008000000008F0E00089B0E0008D1
:10004000110F0008110F0008110F0008110F000810
:10005000110F0008110F0008110F0008110F000800
:10006000110F0008110F0008110F0008110F0008F0
:10007000110F0008110F0008110F0008110F0008E0
:10008000110F0008110F0008110F0008110F0008D0
:10009000110F0008110F0008110F0008110F0008C0
:1000A000110F0008110F0008110F0008110F0008B0
:1000B000A90E0008110F000800000000110F000831
:1000C000110F00080000000000000000110F0008E0
:1000D00000000000110F0008110F000800000000D0
:1000E000110F0008110F0008110F00080000000098
:1000F0000000000000000000000000000000000000
:0C01000000000000000000005FF808F1A3
:10010C0010B5054C237833B9044B13B10448AFF345
:10011C0000800123237010BD20000020000000008F
:10012C004025000808B5034B1BB103490348AFF346
:10013C00008008BD000000002400002040250008BD
:10014C0080B400AF064B1B68012B04D1044B00227A
:10015C001A60012300E000231846BD4680BC70479E
:10016C003C00002080B400AF034B01221A6000BF9A
:10017C00BD4680BC704700BF3C00002080B500AF7E
:10018C00224B1B68224A1360224B1B681F4A1360C8
:10019C004FF40051204801F0A1F903461A461D4BBB
:1001AC001A601B4B1A68194B1B689A422BD1174BC0
:1001BC001A68184B1B689A4225D1184B1A68154BB4
:1001CC001B689A420DD0134B1B68144A1360114BD9
:1001DC001B68002B17D1124BC8221A60FFF7C2FF05
:1001EC0011E00F4B1B68013B0D4A13600C4B1B6855
:1001FC00002B08D1074B1B68002B01D1FFF7B2FF76
:10020C00074BC8221A6000BF80BD00BF040000204D
:10021C000000002008000020001001400C0000200D
:10022C001000002080B500AFB74B1B68013B042BBE
:10023C0000F25E8101A252F823F000BF5D020008BB
:10024C007502000819030008BB0300085D040008D0
:10025C0000F012FBAC4B02221A60AC4B03221A606A
:10026C00642000F041FD4CE101222021A84801F05E
:10027C004CF900224021A64801F047F901228021C7
:10028C00A34801F042F900224FF48071A04801F01C
:10029C003CF900224FF400719D4801F036F9002220
:1002AC004FF480619A4801F030F9984B1B6818465E
:1002BC0000F0FCF9954B1B680233184600F066FA07
:1002CC00944B1B68012B14D1904B1B68013B8F4A3C
:1002DC001360642000F008FD8C4B1B68002B08D1C8
:1002EC00894B03221A60894B02221A60642000F0A9
:1002FC00FBFCFFF725FF0346012B40F0FB80824BF4
:10030C000D221A60C82000F0EFFCF3E0012220213E
:10031C007F4801F0FAF8012240217D4801F0F5F800
:10032C00002280217A4801F0F0F800224FF480710D
:10033C00774801F0EAF800224FF40071744801F09C
:10034C00E4F800224FF48061714801F0DEF86F4B45
:10035C001B68184600F0AAF96C4B1B68184600F095
:10036C0015FA6C4B1B68012B14D1684B1B68013BB5
:10037C00664A1360642000F0B7FC644B1B68002BCA
:10038C0008D1614B04221A60604B03221A6064206E
:10039C0000F0AAFCFFF7D4FE0346012B40F0AC8022
:1003AC00594B0E221A60C82000F09EFCA4E00022DB
:1003BC002021574801F0A9F800224021544801F0AF
:1003CC00A4F800228021524801F09FF801224FF43A
:1003DC0080714F4801F099F800224FF400714C489D
:1003EC0001F093F801224FF48061494801F08DF837
:1003FC00464B1B680233184600F058F9434B1B68F8
:10040C00184600F0C3F9434B1B68012B14D13F4B2A
:10041C001B68013B3D4A1360642000F065FC3B4BBC
:10042C001B68002B08D1384B05221A60374B02226F
:10043C001A60642000F058FCFFF782FE0346012B83
:10044C005CD1314B0C221A60C82000F04DFC55E0F9
:10045C00002220212E4801F058F8002240212C487F
:10046C0001F053F800228021294801F04EF80122B6
:10047C004FF48071264801F048F801224FF40071C6
:10048C00234801F042F800224FF48061204801F02B
:10049C003CF81E4B1B68184600F008F91B4B1B68F8
:1004AC00184600F073F91B4B1B68012B14D1174B2A
:1004BC001B68013B154A1360642000F015FC134BBC
:1004CC001B68002B08D1104B02221A600F4B032221
:1004DC001A60642000F008FCFFF732FE0346012B83
:1004EC000ED1094B0C221A60C82000F0FDFB07E06E
:1004FC0000BF06E000BF04E000BF02E000BF00E068
:10050C0000BF00BF80BD00BF4000002044000020A1
:10051C00000801404C00002080B500AF604B1B6808
:10052C000E2B7AD00E2B00F3B1800C2B02D00D2B9E
:10053C0039D0ABE0002220215A4800F0E6FF00221F
:10054C004021584800F0E1FF00228021554800F07E
:10055C00DCFF01224FF48071524800F0D6FF0022DC
:10056C004FF400714F4800F0D0FF01224FF480612E
:10057C004C4800F0CAFF00F0F5F94B4B1B68012BFF
:10058C0005D1474B05221A60C82000F0ADFBFFF7E0
:10059C00D7FD0346012B7BD1414B0D221A60C8209D
:1005AC0000F0A2FB74E0012220213E4800F0ADFFD8
:1005BC00002240213B4800F0A8FF0122802139484D
:1005CC0000F0A3FF00224FF48071364800F09DFF2D
:1005DC0000224FF40071334800F097FF00224FF4D3
:1005EC008061304800F091FF00F0BCF92E4B1B6885
:1005FC00012B06D12A4B02221A604FF4967000F0A0
:10060C0073FBFFF79DFD0346012B43D1244B0E22B8
:10061C001A60C82000F068FB3CE001222021214830
:10062C0000F073FF012240211E4800F06EFF0022F3
:10063C0080211C4800F069FF00224FF4807119489A
:10064C0000F063FF00224FF40071164800F05DFFCC
:10065C0000224FF48061134800F057FF00F082F93C
:10066C00114B1B68012B05D10D4B03221A60C820BE
:10067C0000F03AFBFFF764FD0346012B0CD1084B4D
:10068C000C221A60C82000F02FFB05E000BF04E02C
:10069C0000BF02E000BF00E000BF00BF80BD00BF94
:1006AC0040000020000801404C00002080B584B0C0
:1006BC0000AF78607B68092B60DC324A7B6813449E
:1006CC001B78FB73FB7B03F00103002B0CBF012396
:1006DC000023DBB21A4601212B4800F016FFFB7BEE
:1006EC0003F00203002B0CBF01230023DBB21A46DC
:1006FC000221254800F009FFFB7B03F00403002BCB
:10070C000CBF01230023DBB21A4604211E4800F063
:10071C00FCFEFB7B03F00803002B0CBF0123002322
:10072C00DBB21A460821184800F0EFFEFB7B03F001
:10073C001003002B0CBF01230023DBB21A4610213F
:10074C00114800F0E2FEFB7B03F02003002B0CBFF2
:10075C0001230023DBB21A4620210B4800F0D5FE02
:10076C00FB7B03F04003002B0CBF01230023DBB207
:10077C001A464021044800F0C8FE00E000BF1037C4
:10078C00BD4680BD58250008000C014080B584B0E2
:10079C0000AF78607B68092B66DC354A7B681344B4
:1007AC001B78FB73FB7B03F00103002B0CBF0123B5
:1007BC000023DBB21A4680212E4800F0A6FEFB7BFC
:1007CC0003F00203002B0CBF01230023DBB21A46FB
:1007DC004FF48071274800F098FEFB7B03F0040374
:1007EC00002B0CBF01230023DBB21A464FF400711F
:1007FC00204800F08AFEFB7B03F00803002B0CBFA3
:10080C0001230023DBB21A464FF48061194800F033
:10081C007CFEFB7B03F01003002B0CBF0123002399
:10082C00DBB21A464FF40061124800F06EFEFB7BFF
:10083C0003F02003002B0CBF01230023DBB21A466C
:10084C004FF480510B4800F060FEFB7B03F040033B
:10085C00002B0CBF01230023DBB21A464FF40051CE
:10086C00044800F052FE00E000BF1037BD4680BDCA
:10087C0058250008000C014080B500AF0022202153
:10088C00364800F042FE01224021344800F03DFE83
:10089C0001228021314800F038FE00224FF4807193
:1008AC002E4800F032FE01224FF400712B4800F06C
:1008BC002CFE01224FF48061284800F026FE002215
:1008CC000121274800F021FE00220221244800F0DB
:1008DC001CFE00220421224800F017FE00220821F1
:1008EC001F4800F012FE002210211D4800F00DFEE2
:1008FC00002220211A4800F008FE0022402118484E
:10090C0000F003FE00228021154800F0FEFD0022BD
:10091C004FF48071124800F0F8FD00224FF4007182
:10092C000F4800F0F2FD00224FF480610C4800F0FB
:10093C00ECFD00224FF40061094800F0E6FD0022B6
:10094C004FF48051064800F0E0FD00224FF40051B6
:10095C00034800F0DAFD00BF80BD00BF0008014075
:10096C00000C014080B500AF01220121254800F0A8
:10097C00CCFD01220221234800F0C7FD01220421F5
:10098C00204800F0C2FD012208211E4800F0BDFDE8
:10099C00012210211B4800F0B8FD0122202119482A
:1009AC0000F0B3FD01224021164800F0AEFD0122FB
:1009BC008021144800F0A9FD01224FF480711148E8
:1009CC0000F0A3FD01224FF400710E4800F09DFDD4
:1009DC0001224FF480610B4800F097FD01224FF487
:1009EC000061084800F091FD01224FF48051054848
:1009FC0000F08BFD01224FF40051024800F085FD00
:100A0C0000BF80BD000C014080B500AF00F07CFA47
:100A1C0000F026F800F0ACF800F05EF80C4801F09D
:100A2C00D1F90C4B01221A60642000F08BF9FFF70E
:100A3C00F9FB094B1B68012B06D11021074800F06C
:100A4C007CFD642000F07EF9FFF766FDEFE700BF48
:100A5C0058000020400000205400002000080140F5
:100A6C0080B590B000AF07F118032822002118467A
:100A7C0001F058FD3B1D00221A605A609A60DA6042
:100A8C001A610223BB610123BB621023FB620023AA
:100A9C007B6307F11803184600F068FD0346002B32
:100AAC0001D000F01BF90F237B600023BB600023F7
:100ABC00FB6000233B6100237B613B1D002118463A
:100ACC0000F0D4FF0346002B01D000F007F900BF63
:100ADC004037BD4680BD000080B586B000AF07F141
:100AEC00080300221A605A609A60DA603B460022C2
:100AFC001A605A601D4B4FF080421A601B4B41F636
:100B0C003F725A60194B00229A60184B0922DA6026
:100B1C00164B00221A61154B00229A61134801F002
:100B2C0001F90346002B01D000F0D8F84FF48053A4
:100B3C00BB6007F1080319460C4801F07FFA034625
:100B4C00002B01D000F0CAF800233B6000237B602F
:100B5C003B461946054801F057FC0346002B01D0D3
:100B6C0000F0BCF800BF1837BD4680BD580000200F
:100B7C0080B58AB000AF07F1140300221A605A60E6
:100B8C009A60DA60484B9B69474A43F010039361C3
:100B9C00454B9B6903F010033B613B69424B9B69DE
:100BAC00414A43F0200393613F4B9B6903F02003C0
:100BBC00FB60FB683C4B9B693B4A43F0040393612D
:100BCC00394B9B6903F00403BB60BB68364B9B69D4
:100BDC00354A43F008039361334B9B6903F00803D8
:100BEC007B607B6800224FF4FE61304800F08DFC86
:100BFC00002243F6FF712E4800F087FC4FF4C043EF
:100C0C007B610023BB610123FB6107F114031946CF
:100C1C00284800F0E9FA4FF400437B610023BB61E4
:100C2C000023FB6107F114031946224800F0DCFA9B
:100C3C0001237B610023BB610023FB6107F11403DB
:100C4C0019461D4800F0D0FA4FF4FE637B61012376
:100C5C00BB610023FB6102233B6207F114031946BD
:100C6C00124800F0C1FA43F6FF737B610123BB61AC
:100C7C000023FB6102233B6207F1140319460C4865
:100C8C0000F0B2FA0D4B5B687B627B6A43F0E06369
:100C9C007B627B6A43F400437B62084A7B6A536045
:100CAC0000BF2837BD4680BD00100240000801403F
:100CBC00000C0140001001400014014000000140F4
:100CCC0080B582B000AF786000F050F800F020F8EA
:100CDC00FFF754FA00BF0837BD4680BD80B400AFA3
:100CEC0072B600BFFEE7000080B483B000AF78603E
:100CFC00054A7B681360054B00221A6000BF0C3755
:100D0C00BD4680BC704700BF480000204C0000204E
:100D1C0080B400AF094B1B68002B0BDD074B1B6825
:100D2C00013B064A1360054B1B68002B02DC044B8D
:100D3C0001221A6000BFBD4680BC704748000020ED
:100D4C004C00002080B483B000AF7860054A7B680B
:100D5C001360054B00221A6000BF0C37BD4680BCE7
:100D6C00704700BF500000205400002080B400AF3A
:100D7C00094B1B68002B0BDD074B1B68013B064A1C
:100D8C001360054B1B68002B02DC044B01221A601C
:100D9C0000BFBD4680BC70475000002054000020AE
:100DAC0080B485B000AF154B9B69144A43F0010326
:100DBC009361124B9B6903F00103BB60BB680F4B43
:100DCC00DB690E4A43F08053D3610C4BDB6903F0B3
:100DDC0080537B607B680A4B5B68FB60FB6823F08D
:100DEC00E063FB60FB6843F08063FB60044AFB68D4
:100DFC00536000BF1437BD4680BC704700100240E2
:100E0C000000014080B584B000AF78607B681B683F
:100E1C00B3F1804F13D10C4BDB690B4A43F0010348
:100E2C00D361094BDB6903F00103FB60FB68002213
:100E3C0000211C2000F0A1F91C2000F0BAF900BF21
:100E4C001037BD4680BD00BF0010024080B400AF1B
:100E5C00FEE780B400AFFEE780B400AFFEE780B4DD
:100E6C0000AFFEE780B400AFFEE780B400AF00BF78
:100E7C00BD4680BC704780B400AF00BFBD4680BC8F
:100E8C00704780B400AF00BFBD4680BC704780B5D2
:100E9C0000AF00F07FF800BF80BD000080B500AF50
:100EAC00024800F0DBFF00BF80BD00BF58000020EF
:100EBC0080B400AF00BFBD4680BC7047FFF7F8FFA1
:100ECC000B480C490C4A002302E0D458C45004339C
:100EDC00C4188C42F9D3094A094C002301E0136071
:100EEC000432A242FBD301F0F9FAFFF78DFD7047F3
:100EFC000000002020000020902500082000002089
:100F0C00A4000020FEE7000080B500AF084B1B6872
:100F1C00074A43F010031360032000F023F90F205D
:100F2C0000F008F8FFF73CFF0023184680BD00BF17
:100F3C000020024080B582B000AF7860124B1A6876
:100F4C00124B1B7819464FF47A73B3FBF1F3B2FBD7
:100F5C00F3F3184600F03BF90346002B01D00123B4
:100F6C000EE07B680F2B0AD8002279684FF0FF3017
:100F7C0000F003F9064A7B681360002300E00123AC
:100F8C0018460837BD4680BD140000201C00002008
:100F9C001800002080B400AF054B1B781A46054B97
:100FAC001B681344034A136000BFBD4680BC7047E6
:100FBC001C000020A000002080B400AF024B1B6876
:100FCC001846BD4680BC7047A000002080B485B098
:100FDC0000AF78607B6803F00703FB600C4BDB68A9
:100FEC00BB60BA684FF6FF031340BB60FB681A0284
:100FFC00BB68134343F0BF6343F40033BB60044A44
:10100C00BB68D36000BF1437BD4680BC704700BFBF
:10101C0000ED00E080B400AF044BDB681B0A03F06A
:10102C0007031846BD4680BC704700BF00ED00E0CA
:10103C0080B483B000AF0346FB7197F90730002BE7
:10104C000BDBFB7903F01F02064997F907305B09AC
:10105C00012000FA02F241F8232000BF0C37BD46F4
:10106C0080BC704700E100E080B483B000AF034661
:10107C003960FB7197F90730002B0ADB3B68DAB259
:10108C000C4997F907301201D2B20B4483F80023B4
:10109C000AE03B68DAB20849FB7903F00F03043B22
:1010AC001201D2B20B441A7600BF0C37BD4680BC7D
:1010BC00704700BF00E100E000ED00E080B489B0B3
:1010CC0000AFF860B9607A60FB6803F00703FB615E
:1010DC00FB69C3F10703042B28BF0423BB61FB6925
:1010EC000433062B02D9FB69033B00E000237B6130
:1010FC004FF0FF32BB6902FA03F3DA43BB681A40C4
:10110C007B699A404FF0FF317B6901FA03F3D943B5
:10111C007B680B40134318462437BD4680BC704790
:10112C0080B582B000AF78607B68013BB3F1807F03
:10113C0001D301230FE00A4A7B68013B53600F2166
:10114C004FF0FF30FFF790FF054B00229A60044BE5
:10115C0007221A60002318460837BD4680BD00BF21
:10116C0010E000E080B582B000AF78607868FFF7DF
:10117C002DFF00BF0837BD4680BD80B586B000AFDF
:10118C000346B9607A60FB7300237B61FFF742FF73
:10119C0078617A68B9687869FFF790FF024697F929
:1011AC000F3011461846FFF75FFF00BF1837BD46DA
:1011BC0080BD80B582B000AF0346FB7197F9073054
:1011CC001846FFF735FF00BF0837BD4680BD80B518
:1011DC0082B000AF78607868FFF7A2FF034618462C
:1011EC000837BD4680BD000080B48BB000AF78607E
:1011FC00396000237B6200233B6248E101227B6A59
:10120C0002FA03F3FB613B681B68FA691340BB618C
:10121C00BA69FB699A4240F037813B685B68A34A24
:10122C0093425ED0A14A934275D8A14A934258D0BA
:10123C009F4A93426FD89F4A934252D09D4A934201
:10124C0069D89D4A93424CD09B4A934263D89B4A9F
:10125C00934246D0994A93425DD8122B2AD8122B2E
:10126C0059D801A252F823F0EF120008C912000855
:10127C00DB1200081D1300082313000823130008B9
:10128C00231300082313000823130008231300085A
:10129C00231300082313000823130008231300084A
:1012AC00231300082313000823130008D11200088D
:1012BC00E5120008824A934213D02CE03B68DB68AD
:1012CC003B6229E03B68DB6804333B6224E03B680B
:1012DC00DB6808333B621FE03B68DB680C333B6226
:1012EC001AE03B689B68002B02D104233B6213E09D
:1012FC003B689B68012B05D108233B627B68FA692C
:10130C001A6109E008233B627B68FA695A6103E0C1
:10131C0000233B6200E000BFBB69FF2B01D87B6858
:10132C0001E07B6804337B61BB69FF2B02D87B6ACD
:10133C009B0002E07B6A083B9B003B617B691A685F
:10134C000F213B6901FA03F3DB431A40396A3B690D
:10135C0001FA03F31A437B691A603B685B6803F07C
:10136C008053002B00F09080564B9B69554A43F0FC
:10137C0001039361534B9B6903F00103BB60BB6892
:10138C00514A7B6A9B08023352F82330FB607B6A1C
:10139C0003F003039B000F2202FA03F3DB43FA680A
:1013AC001340FB607B68494A93420DD07B68484AE6
:1013BC00934207D07B68474A934201D1022304E051
:1013CC00032302E0012300E000237A6A02F0030207
:1013DC0092009340FA681343FB603B497B6A9B087D
:1013EC000233FA6841F823203B685B6803F48013EE
:1013FC00002B06D0384B9A683749BB6913438B6076
:10140C0006E0354B9A68BB69DB43334913408B606C
:10141C003B685B6803F40013002B06D02E4BDA6894
:10142C002D49BB691343CB6006E02B4BDA68BB69D3
:10143C00DB4329491340CB603B685B6803F4003302
:10144C00002B06D0244B5A682349BB6913434B60CD
:10145C0006E0214B5A68BB69DB431F4913404B60C4
:10146C003B685B6803F48033002B06D01A4B1A6878
:10147C001949BB6913430B6006E0174B1A68BB692B
:10148C00DB43154913400B607B6A01337B623B687D
:10149C001A687B6A22FA03F3002B7FF4AFAE00BF0D
:1014AC0000BF2C37BD4680BC704700BF0000321017
:1014BC00000031100000221000002110000012105A
:1014CC000000111000100240000001400008014013
:1014DC00000C0140001001400004014080B485B0B4
:1014EC0000AF78600B467B807B689A687B881340E2
:1014FC00002B02D00123FB7301E00023FB73FB7B69
:10150C0018461437BD4680BC704780B483B000AF1A
:10151C0078600B467B8013467B707B78002B03D066
:10152C007A887B681A6103E07B881A047B681A61ED
:10153C0000BF0C37BD4680BC704780B485B000AF8F
:10154C0078600B467B807B68DB68FB607A88FB6885
:10155C0013401A04FB68D9437B880B401A437B6801
:10156C001A6100BF1437BD4680BC704780B586B089
:10157C0000AF78607B68002B01D101236CE27B68A3
:10158C001B6803F00103002B00F08780924B5B6813
:10159C0003F00C03042B0CD08F4B5B6803F00C0393
:1015AC00082B12D18C4B5B6803F48033B3F5803F6E
:1015BC000BD1894B1B6803F40033002B6CD07B6878
:1015CC005B68002B68D1012346E27B685B68B3F54E
:1015DC00803F06D1804B1B687F4A43F480331360F5
:1015EC002EE07B685B68002B0CD17B4B1B687A4A26
:1015FC0023F480331360784B1B68774A23F48023E1
:10160C0013601DE07B685B68B3F5A02F0CD1724BA7
:10161C001B68714A43F4802313606F4B1B686E4A3E
:10162C0043F4803313600BE06B4B1B686A4A23F462
:10163C0080331360684B1B68674A23F48023136064
:10164C007B685B68002B13D0FFF7B6FC386108E0B1
:10165C00FFF7B2FC02463B69D31A642B01D9032372
:10166C00FAE15D4B1B6803F40033002BF0D014E05F
:10167C00FFF7A2FC386108E0FFF79EFC02463B69CD
:10168C00D31A642B01D90323E6E1534B1B6803F4F3
:10169C000033002BF0D100E000BF7B681B6803F027
:1016AC000203002B63D04C4B5B6803F00C03002B44
:1016BC000BD0494B5B6803F00C03082B1CD1464B39
:1016CC005B6803F48033002B16D1434B1B6803F08B
:1016DC000203002B05D07B681B69012B01D0012371
:1016EC00BAE13D4B1B6823F0F8027B685B69DB00B9
:1016FC00394913430B603AE07B681B69002B20D0FF
:10170C00364B01221A60FFF757FC386108E0FFF7EF
:10171C0053FC02463B69D31A022B01D903239BE1EC
:10172C002D4B1B6803F00203002BF0D02A4B1B68D7
:10173C0023F0F8027B685B69DB00274913430B60DD
:10174C0015E0264B00221A60FFF736FC386108E0E2
:10175C00FFF732FC02463B69D31A022B01D9032353
:10176C007AE11D4B1B6803F00203002BF0D17B6860
:10177C001B6803F00803002B3AD07B689B69002B95
:10178C0019D0174B01221A60FFF716FC386108E0DC
:10179C00FFF712FC02463B69D31A022B01D9032333
:1017AC005AE10D4B5B6A03F00203002BF0D00120D1
:1017BC0000F09AFA1CE00A4B00221A60FFF7FCFBBF
:1017CC0038610FE0FFF7F8FB02463B69D31A022B96
:1017DC0008D9032340E100BF001002400000424240
:1017EC00800442429E4B5B6A03F00203002BE9D15A
:1017FC007B681B6803F00403002B00F0A680002319
:10180C00FB75974BDB6903F08053002B0DD1944B88
:10181C00DB69934A43F08053D361914BDB6903F04E
:10182C008053BB60BB680123FB758E4B1B6803F4B4
:10183C008073002B18D18B4B1B688A4A43F480733E
:10184C001360FFF7B9FB386108E0FFF7B5FB024600
:10185C003B69D31A642B01D90323FDE0814B1B6830
:10186C0003F48073002BF0D07B68DB68012B06D16E
:10187C007B4B1B6A7A4A43F0010313622DE07B68B1
:10188C00DB68002B0CD1764B1B6A754A23F00103E5
:10189C001362734B1B6A724A23F0040313621CE03D
:1018AC007B68DB68052B0CD16D4B1B6A6C4A43F0D3
:1018BC00040313626A4B1B6A694A43F00103136207
:1018CC000BE0674B1B6A664A23F001031362644BFF
:1018DC001B6A634A23F0040313627B68DB68002BEA
:1018EC0015D0FFF769FB38610AE0FFF765FB02468C
:1018FC003B69D31A41F28832934201D90323ABE0FE
:10190C00574B1B6A03F00203002BEED014E0FFF7D9
:10191C0053FB38610AE0FFF74FFB02463B69D31AD1
:10192C0041F28832934201D9032395E04C4B1B6A58
:10193C0003F00203002BEED1FB7D012B05D1484BAC
:10194C00DB69474A23F08053D3617B68DB69002B4A
:10195C0000F08180424B5B6803F00C03082B61D0D4
:10196C007B68DB69022B46D13F4B00221A60FFF7E4
:10197C0023FB386108E0FFF71FFB02463B69D31AD3
:10198C00022B01D9032367E0354B1B6803F000736E
:10199C00002BF0D17B681B6AB3F5803F08D1304B2C
:1019AC005B6823F400327B689B682D4913434B60C2
:1019BC002B4B5B6823F474127B68196A7B685B6A37
:1019CC000B43274913434B60274B01221A60FFF747
:1019DC00F3FA386108E0FFF7EFFA02463B69D31AD5
:1019EC00022B01D9032337E01D4B1B6803F0007356
:1019FC00002BF0D02FE01C4B00221A60FFF7DCFA12
:101A0C00386108E0FFF7D8FA02463B69D31A022B7B
:101A1C0001D9032320E0124B1B6803F00073002B49
:101A2C00F0D118E07B68DB69012B01D1012313E0B5
:101A3C000B4B5B68FB60FB6803F480327B681B6AB2
:101A4C009A4206D1FB6803F470127B685B6A9A4277
:101A5C0001D0012300E0002318461837BD4680BD95
:101A6C0000100240007000406000424280B584B01B
:101A7C0000AF786039607B68002B01D10123D0E086
:101A8C006A4B1B6803F007033A689A4210D9674BFC
:101A9C001B6823F0070265493B6813430B60634BDB
:101AAC001B6803F007033A689A4201D00123B8E09F
:101ABC007B681B6803F00203002B20D07B681B683B
:101ACC0003F00403002B05D0594B5B68584A43F4D0
:101ADC00E06353607B681B6803F00803002B05D0A0
:101AEC00534B5B68524A43F460535360504B5B68F2
:101AFC0023F0F0027B689B684D4913434B607B6875
:101B0C001B6803F00103002B40D07B685B68012B42
:101B1C0007D1474B1B6803F40033002B15D101236D
:101B2C007FE07B685B68022B07D1414B1B6803F09D
:101B3C000073002B09D1012373E03D4B1B6803F0AC
:101B4C000203002B01D101236BE0394B5B6823F0BE
:101B5C0003027B685B68364913434B60FFF72CFA32
:101B6C00F8600AE0FFF728FA0246FB68D31A41F244
:101B7C008832934201D9032353E02D4B5B6803F069
:101B8C000C027B685B689B009A42EBD1274B1B686D
:101B9C0003F007033A689A4210D2244B1B6823F0D7
:101BAC00070222493B6813430B60204B1B6803F070
:101BBC0007033A689A4201D0012332E07B681B6824
:101BCC0003F00403002B08D0194B5B6823F4E0628C
:101BDC007B68DB68164913434B607B681B6803F01A
:101BEC000803002B09D0124B5B6823F460527B680E
:101BFC001B69DB000E4913434B6000F021F80246D1
:101C0C000B4B5B681B0903F00F030A49CB5C22FAF0
:101C1C0003F3094A1360094B1B681846FFF78AF94E
:101C2C00002318461037BD4680BD00BF002002407F
:101C3C000010024064250008140000201800002049
:101C4C0080B487B000AF0023FB600023BB6000238F
:101C5C007B6100237B6000233B611E4B5B68FB6058
:101C6C00FB6803F00C03042B02D0082B03D027E0F5
:101C7C00194B3B6127E0FB689B0C03F00F03174AE1
:101C8C00D35C7B60FB6803F48033002B10D0114BCA
:101C9C005B685B0C03F00103114AD35CBB607B688F
:101CAC000D4A02FB03F2BB68B2FBF3F37B6104E069
:101CBC007B680C4A02FB03F37B617B693B6102E0AE
:101CCC00054B3B6100BF3B6918461C37BD4680BCC9
:101CDC00704700BF0010024000127A007425000803
:101CEC008425000800093D0080B485B000AF786001
:101CFC000A4B1B680A4AA2FB03235B0A7A6802FBA5
:101D0C0003F3FB6000BFFB685A1EFA60002BF9D18D
:101D1C0000BF00BF1437BD4680BC704714000020C4
:101D2C00D34D621080B582B000AF78607B68002B19
:101D3C0001D1012341E07B6893F83D30DBB2002BED
:101D4C0006D17B68002283F83C207868FFF75AF8AC
:101D5C007B68022283F83D207B681A687B68043319
:101D6C001946104600F056FA7B68012283F846208B
:101D7C007B68012283F83E207B68012283F83F2098
:101D8C007B68012283F840207B68012283F8412084
:101D9C007B68012283F842207B68012283F8432070
:101DAC007B68012283F844207B68012283F845205C
:101DBC007B68012283F83D20002318460837BD4676
:101DCC0080BD000080B485B000AF78607B6893F86C
:101DDC003D30DBB2012B01D0012335E07B680222C0
:101DEC0083F83D207B681B68DA687B681B6842F0CF
:101DFC000102DA607B681B68164A934209D07B6843
:101E0C001B68B3F1804F04D07B681B68124A934265
:101E1C0011D17B681B689B6803F00703FB60FB68B0
:101E2C00062B10D07B681B681A687B681B6842F015
:101E3C0001021A6007E07B681B681A687B681B68E4
:101E4C0042F001021A60002318461437BD4680BCCC
:101E5C00704700BF002C01400004004080B584B0E6
:101E6C0000AF78607B681B68DB68FB607B681B6875
:101E7C001B69BB60BB6803F00203002B20D0FB681E
:101E8C0003F00203002B1BD07B681B686FF002026F
:101E9C001A617B6801221A777B681B689B6903F0C7
:101EAC000303002B03D0786800F098F905E07868FC
:101EBC0000F08BF9786800F09AF97B6800221A77A9
:101ECC00BB6803F00403002B20D0FB6803F0040371
:101EDC00002B1BD07B681B686FF004021A617B68B7
:101EEC0002221A777B681B689B6903F44073002BF2
:101EFC0003D0786800F072F905E0786800F065F9B5
:101F0C00786800F074F97B6800221A77BB6803F0DC
:101F1C000803002B20D0FB6803F00803002B1BD018
:101F2C007B681B686FF008021A617B6804221A77C1
:101F3C007B681B68DB6903F00303002B03D0786814
:101F4C0000F04CF905E0786800F03FF9786800F093
:101F5C004EF97B6800221A77BB6803F01003002B44
:101F6C0020D0FB6803F01003002B1BD07B681B6890
:101F7C006FF010021A617B6808221A777B681B6865
:101F8C00DB6903F44073002B03D0786800F026F96A
:101F9C0005E0786800F019F9786800F028F97B689A
:101FAC0000221A77BB6803F00103002B0CD0FB68EE
:101FBC0003F00103002B07D07B681B686FF0010254
:101FCC001A617868FEF77CFEBB6803F08003002B77
:101FDC000CD0FB6803F08003002B07D07B681B68D8
:101FEC006FF080021A61786800F06FFABB6803F03A
:101FFC004003002B0CD0FB6803F04003002B07D0F0
:10200C007B681B686FF040021A61786800F0F8F882
:10201C00BB6803F02003002B0CD0FB6803F02003FB
:10202C00002B07D07B681B686FF020021A61786860
:10203C0000F042FA00BF1037BD4680BD80B584B0B9
:10204C0000AF786039600023FB737B6893F83C30F9
:10205C00012B01D10223B4E07B68012283F83C20E0
:10206C007B68022283F83D207B681B689B68BB6001
:10207C00BB6823F07703BB60BB6823F47F43BB6072
:10208C007B681B68BA689A603B681B68B3F5005F95
:10209C003ED0B3F5005F00F28780B3F5805F00F0AF
:1020AC008680B3F5805F7FD8702B1AD0702B7BD8CD
:1020BC00602B50D0602B77D8502B3CD0502B73D842
:1020CC00402B58D0402B6FD8302B64D0302B6BD892
:1020DC00202B60D0202B67D8002B5CD0102B5AD033
:1020EC0062E07B6818683B6899683B685A683B6893
:1020FC00DB6800F06AF97B681B689B68BB60BB6897
:10210C0043F07703BB607B681B68BA689A604FE04A
:10211C007B6818683B6899683B685A683B68DB6861
:10212C0000F053F97B681B689A687B681B6842F463
:10213C0080429A603CE07B6818683B6859683B6851
:10214C00DB681A4600F0CAF87B681B6850211846F9
:10215C0000F021F92CE07B6818683B6859683B68F3
:10216C00DB681A4600F0E8F87B681B6860211846AB
:10217C0000F011F91CE07B6818683B6859683B68F3
:10218C00DB681A4600F0AAF87B681B6840211846E9
:10219C0000F001F90CE07B681A683B681B68194673
:1021AC00104600F0F8F803E00123FB7300E000BFD9
:1021BC007B68012283F83D207B68002283F83C2059
:1021CC00FB7B18461037BD4680BD80B483B000AF92
:1021DC00786000BF0C37BD4680BC704780B483B0BC
:1021EC0000AF786000BF0C37BD4680BC704780B430
:1021FC0083B000AF786000BF0C37BD4680BC704721
:10220C0080B483B000AF786000BF0C37BD4680BC93
:10221C007047000080B485B000AF786039607B688F
:10222C001B68FB607B682B4A934207D07B68B3F139
:10223C00804F03D07B68284A934208D1FB6823F077
:10224C007003FB603B685B68FA681343FB607B6858
:10225C00204A934207D07B68B3F1804F03D07B6850
:10226C001D4A934208D1FB6823F44073FB603B6822
:10227C00DB68FA681343FB60FB6823F080023B6861
:10228C005B691343FB607B68FA681A603B689A6869
:10229C007B68DA623B681A687B689A627B680D4AD5
:1022AC00934203D13B681A697B681A637B680122ED
:1022BC005A617B681B6903F00103002B05D07B6816
:1022CC001B6923F001027B681A6100BF1437BD46FD
:1022DC0080BC7047002C01400004004080B487B0E3
:1022EC0000AFF860B9607A60FB681B6A7B61FB68C1
:1022FC001B6A23F00102FB681A62FB689B693B6155
:10230C003B6923F0F0033B617B681B013A69134383
:10231C003B617B6923F00A037B617A69BB681343D9
:10232C007B61FB683A699A61FB687A691A6200BF43
:10233C001C37BD4680BC704780B487B000AFF860D6
:10234C00B9607A60FB681B6A7B61FB681B6A23F0CF
:10235C001002FB681A62FB689B693B613B6923F4C2
:10236C0070433B617B681B033A6913433B617B6998
:10237C0023F0A0037B61BB681B017A6913437B616B
:10238C00FB683A699A61FB687A691A6200BF1C376C
:10239C00BD4680BC704780B485B000AF78603960B2
:1023AC007B689B68FB60FB6823F07003FB603A68FA
:1023BC00FB68134343F00703FB607B68FA689A6081
:1023CC0000BF1437BD4680BC704780B487B000AFE7
:1023DC00F860B9607A603B60FB689B687B617B69E5
:1023EC0023F47F437B613B681A027B681A43BB680A
:1023FC0013437A6913437B61FB687A699A6000BF67
:10240C001C37BD4680BC704780B485B000AF786087
:10241C0039607B6893F83C30012B01D1022341E0F9
:10242C007B68012283F83C207B68022283F83D20E4
:10243C007B681B685B68FB607B681B689B68BB6088
:10244C00FB6823F07003FB603B681B68FA6813435E
:10245C00FB607B681B68FA685A607B681B68144ACF
:10246C00934209D07B681B68B3F1804F04D07B6822
:10247C001B68104A93420CD1BB6823F08003BB60ED
:10248C003B685B68BA681343BB607B681B68BA68BF
:10249C009A607B68012283F83D207B68002283F8D8
:1024AC003C20002318461437BD4680BC704700BF43
:1024BC00002C01400004004080B483B000AF786071
:1024CC0000BF0C37BD4680BC704780B483B000AFF2
:1024DC00786000BF0C37BD4680BC704770B50026D5
:1024EC000C4D0D4C641BA410A64209D100F022F82F
:1024FC0000260A4D0A4C641BA410A64205D170BDDF
:10250C0055F8043B98470136EEE755F8043B9847DD
:10251C000136F2E788250008882500088825000880
:10252C008C25000803460244934200D1704703F8FF
:10253C00011BF9E7F8B500BFF8BC08BC9E46704714
:0C254C00F8B500BFF8BC08BC9E46704704
:102558003F065B4F666D7D077F6F0000000000003F
:10256800000000000102030406070809020304052D
:10257800060708090A0B0C0D0E0F101001020000C7
:042588003101000815
:04258C000D01000835
:102590000100000001000000010000000100000037
:1025A000C800000000127A001000000001000000C6
:0400000508000EC918
:00000001FF
